{
  "contractName": "Todo",
  "abi": [
    {
      "inputs": [],
      "payable": false,
      "stateMutability": "nonpayable",
      "type": "constructor"
    },
    {
      "constant": true,
      "inputs": [
        {
          "internalType": "address",
          "name": "",
          "type": "address"
        },
        {
          "internalType": "uint256",
          "name": "",
          "type": "uint256"
        }
      ],
      "name": "todos",
      "outputs": [
        {
          "internalType": "string",
          "name": "description",
          "type": "string"
        }
      ],
      "payable": false,
      "stateMutability": "view",
      "type": "function"
    },
    {
      "constant": false,
      "inputs": [
        {
          "internalType": "string",
          "name": "description",
          "type": "string"
        }
      ],
      "name": "addTodo",
      "outputs": [
        {
          "internalType": "uint256",
          "name": "addedIndex",
          "type": "uint256"
        }
      ],
      "payable": false,
      "stateMutability": "nonpayable",
      "type": "function"
    },
    {
      "constant": false,
      "inputs": [
        {
          "internalType": "uint256",
          "name": "index",
          "type": "uint256"
        }
      ],
      "name": "remove",
      "outputs": [
        {
          "internalType": "uint256",
          "name": "newLength",
          "type": "uint256"
        }
      ],
      "payable": false,
      "stateMutability": "nonpayable",
      "type": "function"
    }
  ],
  "bytecode": "0x608060405234801561001057600080fd5b5061059c806100206000396000f3fe608060405234801561001057600080fd5b50600436106100415760003560e01c8063428c1889146100465780634cc822151461010d57806395ffebf51461014f575b600080fd5b6100926004803603604081101561005c57600080fd5b81019080803573ffffffffffffffffffffffffffffffffffffffff1690602001909291908035906020019092919050505061021e565b6040518080602001828103825283818151815260200191508051906020019080838360005b838110156100d25780820151818401526020810190506100b7565b50505050905090810190601f1680156100ff5780820380516001836020036101000a031916815260200191505b509250505060405180910390f35b6101396004803603602081101561012357600080fd5b81019080803590602001909291905050506102ea565b6040518082815260200191505060405180910390f35b6102086004803603602081101561016557600080fd5b810190808035906020019064010000000081111561018257600080fd5b82018360208201111561019457600080fd5b803590602001918460018302840111640100000000831117156101b657600080fd5b91908080601f016020809104026020016040519081016040528093929190818152602001838380828437600081840152601f19601f82011690508083019250505050505050919291929050505061039b565b6040518082815260200191505060405180910390f35b6000602052816000526040600020818154811061023757fe5b9060005260206000200160009150915050806000018054600181600116156101000203166002900480601f0160208091040260200160405190810160405280929190818152602001828054600181600116156101000203166002900480156102e05780601f106102b5576101008083540402835291602001916102e0565b820191906000526020600020905b8154815290600101906020018083116102c357829003601f168201915b5050505050905081565b60008060003373ffffffffffffffffffffffffffffffffffffffff1673ffffffffffffffffffffffffffffffffffffffff168152602001908152602001600020828154811061033557fe5b9060005260206000200160008082016000610350919061047a565b50506000803373ffffffffffffffffffffffffffffffffffffffff1673ffffffffffffffffffffffffffffffffffffffff168152602001908152602001600020805490509050919050565b60008060003373ffffffffffffffffffffffffffffffffffffffff1673ffffffffffffffffffffffffffffffffffffffff168152602001908152602001600020604051806020016040528084815250908060018154018082558091505090600182039060005260206000200160009091929091909150600082015181600001908051906020019061042d9291906104c2565b505050506000803373ffffffffffffffffffffffffffffffffffffffff1673ffffffffffffffffffffffffffffffffffffffff168152602001908152602001600020805490509050919050565b50805460018160011615610100020316600290046000825580601f106104a057506104bf565b601f0160209004906000526020600020908101906104be9190610542565b5b50565b828054600181600116156101000203166002900490600052602060002090601f016020900481019282601f1061050357805160ff1916838001178555610531565b82800160010185558215610531579182015b82811115610530578251825591602001919060010190610515565b5b50905061053e9190610542565b5090565b61056491905b80821115610560576000816000905550600101610548565b5090565b9056fea265627a7a7231582061c55b0726484ea7ba75b1f54d65e8586acd2e298b2caf4a65617bd36413b57c64736f6c63430005100032",
  "source": "// SPDX-License-Identifier: MIT\npragma solidity >=0.4.22 <0.9.0;\n\ncontract Todo {\n  struct STodo {\n    string description;\n  }\n\n  mapping(address => STodo[]) public todos;\n\n  constructor() public {}\n\n  function addTodo(string memory description)\n    public\n    returns (uint256 addedIndex)\n  {\n    // require(msg.sender == owner, \"Todo not added by owner.\");\n    todos[msg.sender].push(STodo(description));\n    addedIndex = todos[msg.sender].length;\n  }\n\n  function remove(uint256 index) external returns (uint256 newLength) {\n    delete todos[msg.sender][index];\n    newLength = todos[msg.sender].length;\n    // require(msg.sender == owner, \"Todo not deleted by owner.\");\n    // delete todos[index];\n    // newLength = todos.length;\n  }\n}\n",
  "sourcePath": "/home/angelu/Documents/Dev Projects/Solidity/todo-dapp/contracts/Todo.sol",
  "compiler": {
    "name": "solc",
    "version": "0.5.16+commit.9c3226ce.Emscripten.clang"
  },
  "schemaVersion": "3.4.3",
  "updatedAt": "2021-10-01T02:09:59.280Z",
  "devdoc": {
    "methods": {}
  },
  "userdoc": {
    "methods": {}
  }
}